:1000000009C016C015C015C013C012C011C010C061
:100010000FC00EC011241FBECFE9CDBF20E0A0E667
:10002000B0E001C01D92A436B207E1F727D048C066
:10003000E7CF1F920F920FB60F9211248F939F93C9
:10004000AF93BF938091600090916100A091620096
:10005000B09163000196A11DB11D80936000909343
:100060006100A0936200B0936300BF91AF919F9134
:100070008F910F900FBE0F901F9018958FB58360D2
:100080008FBD89B7826089BF83B7816083BF12BE8D
:10009000789483E886B9B89A26E131E0C09A85E67B
:1000A00090E0019749F4C09885E690E00197B1F39C
:1000B000F9013197F1F7FACFF9013197F1F7F1CF63
:0400C000F894FFCFE2
:00000001FF
